S0190000534C53544B33343030415F626C696E6B5F332E73333741
S11300000020002085020000B1020000B1020000BF
S1130010B1020000B1020000B1020000B102000010
S1130020B1020000B1020000B1020000B102000000
S1130030B1020000B1020000B10200003D43000023
S1130040F51B0000B1020000B1020000B102000083
S1130050B1020000B1020000B1020000B1020000D0
S1130060910D00009D0D0000914B0000B1020000B5
S1130070A1430000B1020000B1020000B10200007F
S1130080B1020000710C00001D0D0000B10200005F
S1130090B102000010B5064C2378002B07D1054BA4
S11300A0002B02D0044800E000BF0123237010BDE0
S11300B00001002000000000AC61000008B5084BFE
S11300C0002B03D00748084900E000BF0748036835
S11300D0002B00D108BD064B002BFBD09847F9E755
S11300E000000000AC61000004010020CC000020EE
S11300F000000000164B002B00D1144B9D464022FB
S113010092029A1A924600218B460F461348144ACB
S1130110121A05F0D2FB0F4B002B00D098470E4B60
S1130120002B00D098470020002104000D000D484A
S1130130002802D00C4800E000BF05F08FFB20002F
S1130140290004F0ABF905F073FBC0460000080079
S1130150002000200000000000000000000100203A
S113016080080020000000000000000090B587B067
S113017000AF3B1C134A13CA13C313CA13C3124B55
S113018000221A60114B00221A60114B181C012125
S113019001F032F80F4B181C012101F02DF80E4B21
S11301A0181C012101F028F80C4A3B1C101C191CD6
S11301B002F0E8FF012000F013F80023181CBD46EC
S11301C007B090BDF85800001C0100202001002059
S11301D040810400008204000042040000C4004086
S11301E080B582B000AF021CFB1D1A70FB1D1B788A
S11301F0002B18D0052002210422012302F0A8F8C4
S1130200002000210122012302F0A2F8002009218C
S11302100422012302F09CF8104B104A526D10493D
S11302200A435A6517E0002009210022002302F046
S11302308FF80A4B094A526D03218A435A650520F7
S113024002210022002302F083F800200021002272
S1130250002302F07DF8BD4602B080BD00C400401A
S11302600304000080B582B000AF78607B6804228C
S1130270134001D0FFF77AFF0023181CBD4602B0DB
S113028080BDC046064880470649074A074B9B1A6B
S113029003DD043BC858D050FBDCFFF72BFF000004
S11302A0FD030000B861000000000020D000002021
S11302B0FEE7C04680B582B000AF00F01FF8031C13
S11302C07B60084B5B680F2213401A1C7B68D34089
S11302D07B60054B7A681A607B68181CBD4602B0C7
S11302E080BDC04600800C400800002080B500AFEF
S11302F0014B181CBD4680BD00366E0180B582B02E
S113030000AF344BDB6A344A1340802252019342DB
S113031015D080225201934204D8802212019342C4
S113032011D017E080229201934204D08022D2049B
S113033093420CD00EE0294B1B687B6039E080238C
S11303401B027B6035E0264B1B687B6031E0254B4C
S11303507B602EE01F4BDA68E023DB001340802231
S11303609200934218D080229200934206D8002B28
S113037018D080225200934211D016E0C02292007D
S1130380934206D08022D20093420ED1164B7B605A
S11303900EE0164B7B600BE0154B7B6008E0154BC1
S11303A07B6005E0144B7B6002E000237B60C04669
S11303B0C046084B1A68E0235B0213409B0B0133D1
S11303C07868191C04F0FEFD031C181CBD4602B01D
S11303D080BDC04600800C40003C000404000020A6
S11303E00000002000366E01406F4001809FD50060
S11303F0C0D8A70040B56400804F120080B500AF9C
S1130400024B034A9A60BD4680BDC04600ED00E041
S11304100000000080B500AF80231B02181CBD46FD
S113042080BDC04680B500AFFA239B00181CBD46B2
S113043080BDC04680B500AF024B1B68181CBD468A
S113044080BDC0460400002080B582B000AF021C0D
S1130450FB1D1A70FB1D1B787F2B09D8064BFA1D58
S11304601278111C1F220A40012191400A1C1A60B3
S1130470BD4602B080BDC04600E100E080B582B058
S113048000AF786039607B683A689A64BD4602B010
S113049080BDC04680B582B000AF786039607B68AB
S11304A0DA6C3B681A437B68DA64BD4602B080BDEF
S11304B080B582B000AF78607B681B6C181CBD46A9
S11304C002B080BD80B582B000AF786039607B68CF
S11304D03A685A64BD4602B080BDC04680B582B059
S11304E000AF021C3960FB1D1A70FB1D1B78002B2A
S11304F021D0FB1D1B78012B1AD0FB1D1B78022B6E
S113050014D0FB1D1B78032B0ED0FB1D1B78042B72
S113051007D0FB1D1B78052B01D13F230CE00023E2
S11305200AE0F0239B0107E0F02305E0114B03E010
S1130530D323DB0100E0104B3A681341012213403E
S113054005D10E4B0E4A181C111C00F02DFC0D4950
S1130550FB1D1A783B6801209840031C181C131CCF
S1130560DB009B189B00CB1810331860BD4602B00B
S113057080BDC0461FEF00000707000010590000AF
S11305800C0400000060004090B589B000AF7860B2
S11305900C1C101C191CFB1C221C1A70BB1C021CFA
S11305A01A707B1C0A1C1A70BC4B7A681A600823E8
S11305B0FB18BB4A13CA13C313CA13C3B94B181C81
S11305C0012100F019FEB54B1B68B74A934205D1CF
S11305D0B64B181C012100F00FFE09E0AF4B1B685D
S11305E0B34A934204D1B34B181C012100F004FE1A
S11305F0BB1C1B78002B09D00020092104220123F5
S113060001F0A6FE00200921FFF768FFA34B1B6839
S1130610A54A934245D1FB1C1B78062B00D982E0E6
S11306209A00A54BD3181B689F4604200B21012276
S1130630002301F08DFE04200A210422012301F08D
S113064087FE2DE002200A210122002301F080FE12
S113065026E004200C210122002301F079FE04206D
S11306600D210422012301F073FE19E00120082169
S11306700122002301F06CFE012007210422012342
S113068001F066FE0CE0022001210122002301F0AA
S11306905FFE022000210422012301F059FEC0461E
S11306A041E07E4B1B68824A93423CD1FB1C1B7881
S11306B0052B38D89A00814BD3181B689F4602201B
S11306C001210122002301F043FE02200021042223
S11306D0012301F03DFE26E0032006210122002330
S11306E001F036FE032007210422012301F030FE2D
S11306F019E0002000210122002301F029FE052039
S113070002210422012301F023FE0CE00220022135
S11307100122002301F01CFE0220012104220123F6
S113072001F016FEC0465D4B1A680823FB18101C26
S1130730191C02F027FDFB1C1B78062B44D89A00D9
S11307405F4BD3181B689F46544B1B68534A12686F
S1130750526D03210A435A653EE0504B1B684F4AD1
S11307601268526D0421FF310A435A6534E04B4B41
S11307701B684A4A1268526D52490A435A652BE073
S1130780464B1B68454A1268526D4F490A435A65E5
S113079022E0424B1B68414A1268526D4B490A439E
S11307A05A6519E03D4B1B683C4A1268526D484932
S11307B00A435A6510E0394B1B68384A1268526D77
S11307C044490A435A6507E0344B1B68334A1268AC
S11307D0526D03210A435A657B1C1B78002B41D0C0
S11307E02E4B1B68181C0421FFF754FE2B4B1B686F
S11307F0181C0121FFF74EFE284B1B682A4A93421E
S113080006D11120FFF720FE1220FFF71DFE0AE09B
S1130810224B1B68264A934205D10820FFF714FE99
S11308200920FFF711FE2C4B181C00F065F82B4B28
S1130830181C00F081F82A4B181C00F039F9294BD8
S1130840181C00F047F9284B181C00F057F9274BE7
S1130850181C00F071F8114B1B68181C0121FFF7DC
S113086031FE17E01C4B181C00F046F8204B181CF6
S113087000F062F81A4B181C00F01AF9194B181CF6
S113088000F028F9184B181C00F038F9194B181C03
S113089000F052F8BD4609B090BDC04600020020E9
S11308A0945A00000082040000C00040003204009A
S11308B000C4004000420400185B0000345B0000E8
S11308C04C5B00000302000003030000030400006B
S11308D003050000030600007C5900008459000051
S11308E0B4590000D0590000EC590000105A00001F
S11308F03C5A0000685A000080B584B000AF7860AC
S11309000023FB600CE00B4B19687A68FB68D31872
S11309101B78081C191C02F0F7FCFB680133FB6010
S11309207A68FB68D3181B78002BECD1BD4604B061
S113093080BDC0460002002080B582B000AF786060
S11309407B68181CFFF7D8FF074B1B68181C0D2188
S113095002F0DAFC044B1B68181C0A2102F0D4FCD8
S1130960BD4602B080BDC0460002002080B582B002
S113097000AF78600A1CFB1C1A70FB1C1B78062B4A
S11309805BD89A00324BD3181B689F46314B181C16
S1130990FFF7B2FF7B68181CFFF7AEFF55E02E4B44
S11309A0181CFFF7A9FF7B68181CFFF7A5FF294B4C
S11309B0181CFFF7A1FF48E0284B181CFFF79CFF09
S11309C07B68181CFFF798FF224B181CFFF794FF55
S11309D03BE0234B181CFFF78FFF7B68181CFFF7C5
S11309E08BFF1C4B181CFFF787FF2EE01D4B181CB8
S11309F0FFF782FF7B68181CFFF77EFF154B181C5E
S1130A00FFF77AFF21E0184B181CFFF775FF7B688E
S1130A10181CFFF771FF0F4B181CFFF76DFF14E054
S1130A20124B181CFFF768FF7B68181CFFF764FF64
S1130A30084B181CFFF760FF07E0064B181CFFF774
S1130A405BFF7B68181CFFF757FFBD4602B080BDF3
S1130A50685B00007C590000AC5A0000B45A0000E6
S1130A60BC5A0000C45A0000CC5A0000D45A0000FA
S1130A7080B582B000AF78600A1CFB1C1A707A68DB
S1130A80FB1C1B78101C191CFFF770FF074B1B681D
S1130A90181C0D2102F038FC044B1B68181C0A2199
S1130AA002F032FCBD4602B080BDC0460002002008
S1130AB080B582B000AF7860054B181CFFF71CFFAF
S1130AC07B68181CFFF738FFBD4602B080BDC046E6
S1130AD0DC5A000080B582B000AF7860064B181C69
S1130AE00521FFF743FF7B68181C0521FFF7C0FFB2
S1130AF0BD4602B080BDC046E45A000080B582B055
S1130B0000AF7860064B181C0021FFF72FFF7B68AD
S1130B10181C0021FFF7ACFFBD4602B080BDC046E3
S1130B20EC5A000080B586B000AF78607B68002B7B
S1130B300EDA7B685B427B610D4B181CFFF7DCFE11
S1130B400823FA187B69101C191C00F013F806E03E
S1130B507B680822BA18101C191C00F00BF8082333
S1130B60FB18181CFFF7C8FEBD4606B080BDC04682
S1130B70F45A000080B588B000AF786039603B68F3
S1130B80002B07D17B6830221A707B680133002266
S1130B901A706AE03B68FB611B23FB1800221A7081
S1130BA01A23FB1800221A7027E0FB69181C0A217B
S1130BB004F08EFA0B1C7B611B23FB181B787A69EB
S1130BC0092A04D87A69D2B23032D1B200E03F2186
S1130BD00822BA18D1541B23FB181A781B23FB18BC
S1130BE001321A70FA697B69D31AFB61FB69181C1C
S1130BF00A2104F0E7F9031CFB61FB69002BD4D143
S1130C001A23FB181B22BA1812781A701923FB181E
S1130C1000221A701AE01923FB181B787A68D3187B
S1130C201A22BA181278013A082179188A5C1A70C3
S1130C301A23FB181A781A23FB18013A1A7019237D
S1130C40FB181A781923FB1801321A701923FA18A1
S1130C501B23FB1812781B789A42DCD31B23FB1846
S1130C601B787A68D31800221A70BD4608B080BD7C
S1130C7090B583B000AF254B1B68181CFFF718FC18
S1130C80031C7B60214B1A687B68101C191CFFF73E
S1130C90F5FB1F4B1C68621C1D4B1A601B4B1B6829
S1130CA0181C02F01FFB031C1A1C1A4B1A55184B74
S1130CB01B68013B174AD35CDBB20D2B07D0144BE6
S1130CC01B68013B134AD35CDBB20C2B0BD1124BD8
S1130CD001221A700E4B1B68013B0E4A0021D154AD
S1130CE00B4B00221A600A4B1B684D2B0AD90A4B86
S1130CF001221A70064B1B68064A0021D154044B8A
S1130D0000221A60BD4603B090BDC0460002002018
S1130D1028010020040200202401002080B582B0B4
S1130D2000AF184B1B68181CFFF7C2FB031C7B6049
S1130D30144B1A687B68101C191CFFF79FFB7B6817
S1130D40012213401BD0104B1B684F2B14D80E4BA1
S1130D501B680E4AD35CDBB2002B0DD0094B18681C
S1130D60094B1B68591C084A1160084AD35CDBB262
S1130D70191C02F0C9FA02E0034B00221A60BD46B6
S1130D8002B080BD000200202C0100205C03002082
S1130D9080B500AFFFF76CFFBD4680BD80B500AFE6
S1130DA0FFF7BCFFBD4680BD80B582B000AF786060
S1130DB03960FEE780B586B000AFF860B9607A604C
S1130DC0FB681B687B61BB6801229A40131CDB43F0
S1130DD01A1C7B691A407B6801211940BB68994041
S1130DE00B1C1A43FB681A60BD4606B080BDC046A2
S1130DF080B582B000AF786039607B681A683B6860
S1130E00DA40131C01221340181CBD4602B080BDF9
S1130E1080B500AF034BDB6C1B0EDBB2181CBD4668
S1130E2080BDC046B081E00F80B582B000AF254BD5
S1130E305A69E023DB0013408022920093421ED0C3
S1130E4080229200934206D8002B26D080225200A2
S1130E5093421FD027E0C0229200934204D0E022A4
S1130E60D20093421CD01EE0FFF7D2FF031E122BC8
S1130E7002D9154B7B6020E0144B7B601DE0FFF72B
S1130E80C7FF031E122B02D9114B7B6015E0114BD7
S1130E907B6012E0104B7B600FE0104B7B600CE03A
S1130EA00F4B7B6009E000237B600E4AA6231B01E5
S1130EB0101C191CFFF778FFC0467B68181CBD4640
S1130EC002B080BD00800C40804F120040420F00F1
S1130ED040B56400C0CF6A00C0D8A700809FD50089
S1130EE0406F4001F05B000090B583B000AFFC1C84
S1130EF0114B181C00F08EFA031C2370FB1C1B788A
S1130F00072B06D0092B09D1FFF7F8F9031C7B60E6
S1130F100DE0FFF789FF031C7B6008E000237B6082
S1130F20064B074A181C111CFFF73EFFC0467B689E
S1130F30181CBD4603B090BD06000E00F05B000017
S1130F409A0A000080B584B000AF786039600F4B16
S1130F505B6807221340FB607B680D4A934202D80A
S1130F600023FB6005E07B680A4A934201D8012311
S1130F70FB60064B054A526807218A43111CFA6834
S1130F800A435A60BD4604B080BDC04600000C4010
S1130F900024F4000048E80180B582B000AF0D4B96
S1130FA0DA6BFB1D511E8A411A700A4B0A4ADA6336
S1130FB0FFF79CF9031C181C0021FFF7C3FFFB1D5E
S1130FC01B78002B02D0034B0022DA63BD4602B02B
S1130FD080BDC04600000C40711B000080B584B089
S1130FE000AF786039600D4BDA6B0F23FB18511E8C
S1130FF08A411A70094B0A4ADA637A683B68101C02
S1131000191CFFF79FFF0F23FB181B78002B02D03E
S1131010024B0022DA63BD4604B080BD00000C40E0
S1131020711B000080B584B000AF78600023BB6002
S11310307B683F4A93420CD03E4A934209D03E4AD1
S1131040934206D03D4B3E4A181C111CFFF7ACFEE0
S113105000E0C0467B68181C00F0DCF9031CFB6050
S11310607B68334A93420BD0324A93420FD0324AC0
S1131070934213D1334B9B6A03221340FB6014E069
S1131080304B9B6A0C2213409B08FB600DE02D4BF8
S11310909B6A302213401B09FB6006E0274B2A4A57
S11310A0181C111CFFF780FEC046FB68012B05D0FD
S11310B014D3022B07D0032B0AD02BE0FFF7AAF995
S11310C0031CBB602FE0FFF7B5F9031CBB602AE0EB
S11310D0FFF7F0F8031C5B08BB6024E00023BB604F
S11310E07B68154A934203D07B68114A934210D11E
S11310F0144B9A6A7B6810498B4201D1102300E09B
S11311001423DA40131E04D0FFF78CF9031CBB60D0
S113111009E008E00023BB60084B0C4A181C111CB2
S1131120FFF742FEC046BB68181CBD4604B080BD34
S1131130030020000400220002001E00F05B0000F7
S1131140C90C000000800C40F80C0000230D0000C6
S113115080B582B000AF7860074B5B6D012213400D
S113116000D005E0C046044B1B6D7A681340FAD1E9
S1131170BD4602B080BDC04600800C4090B583B02F
S113118000AFFC1C164B181C00F044F9031C237020
S1131190FB1C1B78032B0DD002DC022B05D017E0BF
S11311A0092B10D00A2B0AD012E0FFF743F9031CD5
S11311B07B6010E0FFF72EF9031C7B600BE0094B0A
S11311C01B687B6007E0FFF799F8031C7B6002E073
S11311D000237B60C0467B68181CBD4603B090BDED
S11311E0073326000C00002080B500AFBD4680BD4B
S11311F080B500AFBD4680BD80B586B000AF7860D5
S11312000A1CFB1C1A7000233B617B681B0A0F221B
S113121013400A2B20D89A001F4BD3181B689F46F3
S11312201E4B7B611FE01E4B7B611CE01D4B7B61F1
S113123019E01D4B7B6101233B6114E01B4B7B6177
S113124010233B610FE01A4B7B6180235B003B6101
S113125009E0184B7B6106E0174B184A181C111C57
S1131260FFF7A2FD14E07B681B0B1F221340FB60F9
S11312703B69002B03D03B69181CFFF769FFFB1C7B
S11312801B787969FA68081C111C1A1CFFF792FD77
S1131290BD4606B080BDC0465C5C000040800C408A
S11312A008800C4044800C4058800C4060800C4006
S11312B064800C4078800C40F05B00003C1100001E
S11312C080B584B000AF78607A68F8239B0313403C
S11312D080225203934200D179E080225203934248
S11312E013D88022920293423BD0802292029342EE
S11312F002D8002B23D074E08022D202934223D060
S1131300E022120393425DD06BE0F0225203934239
S11313102CD0F0225203934208D8902252039342D5
S11313202BD0D022520393423DD05AE08022920324
S1131330934231D09822920393424DD051E0FEF76C
S1131340DDFF031CFB6055E0FEF7D8FF031CFB60C8
S11313502B4B9B680F2213401A1CFB68D340FB6085
S113136048E0FEF7A7FF031CFB6043E0254B181C75
S1131370FFF758FE031CFB603CE0224B181CFFF7F0
S113138051FE031CFB601E4B9B6E0F2213401A1C64
S1131390FB68D340FB602DE01B4B181CFFF742FE9B
S11313A0031CFB6026E0184B181CFFF73BFE031CD4
S11313B0FB60134B1B6F032213401A1CFB68D340C2
S11313C0FB6017E0FFF790FD031CFB6012E0FFF7E2
S11313D02BFD031CFB600DE0FFF7D0FE031CFB603C
S11313E008E00023FB60094B094A181C111CFFF795
S11313F0DBFCC046FB68181CBD4604B080BDC0467B
S113140000800C4002001E0003002000F05B00007E
S11314106212000080B584B000AF78600F23FB181F
S113142001221A707B680F221340BB60BB68072B34
S113143000D9CAE0BB689A006D4BD3181B689F465D
S11314406C4BDB6A6C4A134080225201934216D0E3
S113145080225201934204D880221201934213D075
S11314601CE080229201934204D08022D204934251
S11314700FD013E00F23FB1802221A7013E00F237E
S1131480FB1803221A700EE00F23FB1804221A70B3
S113149009E00F23FB180B221A7004E00F23FB183A
S11314A005221A70C0469BE0524B9B6A03221340EC
S11314B0022B08D0032B0BD0012B0ED10F23FB18CA
S11314C003221A7015E00F23FB1802221A7010E091
S11314D00F23FB1806221A700BE0464B9A6A8023EE
S11314E05B02134004D00F23FB180C221A7000E097
S11314F0C04675E03F4B9B6A0C221340082B08D072
S11315000C2B0BD0042B0ED10F23FB1803221A70C3
S113151015E00F23FB1802221A7010E00F23FB18AA
S113152006221A700BE0334B9A6A80235B03134044
S113153004D00F23FB180C221A7000E0C0464FE0C1
S11315402C4B9B6A30221340102B02D0202B05D049
S113155009E00F23FB1803221A7009E00F23FB187C
S113156002221A7004E00F23FB1801221A70C046ED
S113157036E00F23FB1807221A7031E01D4BDA6A9C
S1131580E023DB02134080229202934212D0802295
S1131590D202934204D080225202934205D00EE03C
S11315A00F23FB180A221A700EE00F23FB180222E5
S11315B01A7009E00F23FB1803221A7004E00F23AA
S11315C0FB1801221A70C0460AE00F23FB18002200
S11315D01A700A4B0A4A181C111CFFF7E5FBC04697
S11315E00F23FB181B78181CBD4604B080BDC046F1
S11315F0885C000000800C40003C0004F05B0000AC
S11316007616000080B588B000AF78600A1CFB1C19
S11316101A700323FB611B23FB1803221A70002397
S11316203B617B680F221340FB60FB68072B00D9EA
S113163014E1FB689A008E4BD3181B689F46FB1C71
S11316401B780C2B2ED89A008A4BD3181B689F4604
S11316500423FB611B23FB1800221A7029E00323D7
S1131660FB611B23FB1801221A7022E00223FB6199
S11316701B23FB1802221A701BE00123FB611B23AE
S1131680FB1803221A7014E00523FB611B23FB18CB
S113169005221A700DE0784B784A181C111CFFF7CC
S11316A083FBE2E0744B764A181C111CFFF77CFBA9
S11316B0DBE01B23FB181B78181C0121012200F01E
S11316C0F3F8FFF769FCFFF78FFD6E4BFA695A6276
S11316D0FEF7F0FD031CBB60BB68181C0021FFF77C
S11316E07DFCFFF785FDC0E0FB1C1B780C2B25D887
S11316F09A00654BD3181B689F4600237B6124E046
S113170000200121012200F0CFF802237B611CE0BC
S113171001200121012200F0C7F801237B6114E0BC
S11317205A4B181C02210122FFF744FB03237B615F
S11317300BE000237B6101233B6106E04E4B544ADE
S1131740181C111CFFF730FB8FE0FB68022B0BD138
S11317504C4B4C4A926A4F4911407A6911433A6999
S113176012040A439A6280E0464B464A926A4A4906
S113177011407A69920011433A6912050A439A6248
S113178073E0FB1C1B78022B06D0032B0CD0012B1F
S113179012D100237B6116E000200121012200F018
S11317A083F802237B610EE001200121012200F075
S11317B07BF801237B6106E02F4B384A181C111C6F
S11317C0FFF7F2FA51E02F4B2E4A926A30218A43F6
S11317D0111C7A6912010A439A6246E0FB1C1B78C9
S11317E0032B13D00A2B21D0022B2FD1002001214F
S11317F0012200F059F8234B40225A62C046214B83
S1131800DA6A80235B021340F9D026E0012001212B
S1131810012200F049F81B4B60225A62C046194B62
S1131820DA6A80239B021340F9D016E005200121D7
S1131830012200F039F8134B80225A62C046114B42
S1131840DA6A8023DB021340F9D006E00A4B144A1B
S1131850181C111CFFF7A8FA07E006E0064B114A12
S1131860181C111CFFF7A0FAC046BD4608B080BD85
S1131870A85C0000C85C0000F05B000034170000A6
S11318803917000000800C40FC5C000040800C40D4
S1131890DD170000FCFFFEFFF3FFEFFF0E18000052
S11318A0771800006D19000090B587B000AF041CD4
S11318B0081C111CFB1D221C1A70BB1D021C1A7073
S11318C07B1D0A1C1A70FB1D1B78052B32D89A004D
S11318D0294BD3181B689F4601233B610223FB60FD
S11318E001237B612DE004233B610823FB60032378
S11318F07B6126E010233B612023FB6005237B6191
S11319001FE040233B618023FB6007237B6118E0D9
S113191080235B003B6180239B00FB6009237B6188
S11319200FE08023DB003B6180231B01FB60162357
S11319307B6106E0114B124A181C111CFFF734FAA4
S113194017E0BB1D1B78002B10D00E4B3A691A62AE
S11319507B1D1B78002B0CD0C0460B4A7B69101CE6
S1131960191CFFF745FA031EF7D002E0054BFA688D
S11319701A62BD4607B090BD305D0000F05B000008
S1131980651D000000800C402C800C4080B582B0A6
S113199000AFEFF310833B603B687B6072B67B68FB
S11319A0181CBD4602B080BD80B582B000AF78601F
S11319B07B68002B00D162B6BD4602B080BDC04634
S11319C080B582B000AFEFF310833B603B687B606F
S11319D072B67B68181CBD4602B080BD80B582B06B
S11319E000AF78607B68002B00D162B6BD4602B0C0
S11319F080BDC04680B582B000AF021CFB1D1A70CA
S1131A00FB1D1B787F2B09D8064BFA1D1278111C7D
S1131A101F220A40012191400A1C1A60BD4602B0EF
S1131A2080BDC04600E100E080B582B000AF021C7A
S1131A30FB1D1A70FB1D1B787F2B0ED80849FB1D5C
S1131A401B781A1C1F23134001229A40131C802266
S1131A508B50BFF34F8FBFF36F8FBD4602B080BD75
S1131A6000E100E080B582B000AF021CFB1D1A70DB
S1131A70FB1D1B787F2B0AD80649FB1D1B781A1CFB
S1131A801F23134001229A40C0235B00CA50BD4665
S1131A9002B080BD00E100E080B586B000AFF86020
S1131AA0B9607A60FB681B687B61BB6801229A405D
S1131AB0131CDB431A1C7B691A407B680121194003
S1131AC0BB6899400B1C1A43FB681A60BD4606B0FC
S1131AD080BDC04690B589B000AF78600C1C101C66
S1131AE0191CFB1C221C1A70BB1C021C1A707B1CC8
S1131AF00A1C1A707B681A013C4B9B68D318BB61A3
S1131B00BB1C1B78002B02D0BB69FB6105E07B6822
S1131B101A01364BDB68D318FB61BB69DB687B6158
S1131B207B69002B03D0BB1C1A787B691A727B6B10
S1131B30002B15D0FB699A68C0231B0513409B0E2C
S1131B403B613B69032B03D1FB697A6B1A6007E0A5
S1131B503B69BA6B9A407B6BD3181A1CFB691A60F9
S1131B603B6B002B12D0FB699B689B0F3B613B696D
S1131B70032B03D1FB693A6B5A6007E03B69BA6BEC
S1131B809A403B6BD3181A1CFB695A607B6801228C
S1131B909A40131CFB607B1C1B78002B03D0134B57
S1131BA0FA689A6102E0114BFA68DA61BB1C1B788F
S1131BB0002B03D00D4BFA685A6302E00B4BFA6812
S1131BC01A63FB699B680A4A1340BB60BB6B1B0129
S1131BD0BA681343BB60FB1C1B78BA681343BB6031
S1131BE0FB69BA689A60BD4609B090BD00200C40FC
S1131BF008C0FFFF90B58BB000AF364A80235B016D
S1131C00D358BB61334A344BD258BB691340BB61D0
S1131C10BB69002B06DA314A8C235B00101C191CAB
S1131C20FFF7C2F82B4B9B6B7B61BB697A6913404E
S1131C303B620023FB6147E000237B6239E03B6A9F
S1131C40012213402FD0234B9B683B6101227B6A06
S1131C509A40131CFB601F49214AFB688B507B6A26
S1131C601B013A69D318DB68BB60BB68002B1AD030
S1131C70BB681B7A7B60BB681B7A01225340DAB2D3
S1131C80BB681A72BB681B68002B0CD0BB681C684D
S1131C90796A7B685A1E9341DAB2BB685B68081C98
S1131CA0111C1A1CA0473B6A5B083B627B6A013328
S1131CB07B623B6A002BC2D17B69DB43BA69134068
S1131CC03B62FB690133FB61FB69012BB4DDBD465B
S1131CD00BB090BD00200C400C100000485D0000CB
S1131CE00810000090B589B004AFF860081C111CFE
S1131CF07B600B23FB18021C1A700A23FB180A1CB6
S1131D001A70FB68052B06D9164AD7235B00101CF2
S1131D10191CFFF749F87B6A134A934206D9114A02
S1131D20B023FF33101C191CFFF73EF8F9680B238E
S1131D30FB181A780A23FB181C787B6800933B6A0B
S1131D4001937B6A0293081C0121231CFFF7C2FE46
S1131D50064BFA68012191400A1C9A62BD4605B0FF
S1131D6090BDC046485D0000FF03000000200C4009
S1131D7080B584B000AF786039607B68052B05D9E5
S1131D80294B2A4A181C111CFFF70EF83B68002B3C
S1131D9006D1254AA8239B00101C191CFFF704F840
S1131DA0234B9B68FB607B681B01FA68D3183A6875
S1131DB09268DA603B681B78002B06D01C4B7A686B
S1131DC0012191400A1C9A6305E0194B7A680121AC
S1131DD091400A1CDA6316493B685A687B6888207C
S1131DE0C000844663449B005A503B685B78002BD8
S1131DF00FD00F4A7B68012199400B1C191C0D4B15
S1131E00D1500D4A7B68101C191C0122FFF744FEB7
S1131E1006E0094A7B68101C191C0022FFF73CFEEF
S1131E20BD4604B080BDC046485D00009F0200006E
S1131E3000200C40081000000C300C4080B586B027
S1131E4000AFF8607A600B23FB180A1C1A70FB6859
S1131E50052B05D91E4B1F4A181C111CFEF7A4FFA5
S1131E607B68002B05D11A4B1B4A181C111CFEF76A
S1131E709BFF0B23FB181B78002B03D0174B9B688D
S1131E807B6102E0154BDB687B61FB681B017A69AF
S1131E90D3187B617B681B789A077B689B781B0748
S1131EA01A437B685B789B061A437B689B781B0606
S1131EB013431A1C7B681B799B0413437A68D278FA
S1131EC092031A437B699A60BD4606B080BDC04642
S1131ED0485D0000E5020000E602000000200C401E
S1131EE080B582B000AF78600A1CFB1C1A707B6856
S1131EF0052B05D90C4B0D4A181C111CFEF754FF79
S1131F00FB1C1B78002B06D0094B7A6801219140F9
S1131F100A1C9A6205E0064B7A68012191400A1C6A
S1131F20DA62BD4602B080BD485D00009603000041
S1131F3000200C4080B582B000AF78607B68052B30
S1131F4005D90A4B0A4A181C111CFEF72DFF094B30
S1131F509A6A7B68DA40131C012213405A1E93418B
S1131F60DBB2181CBD4602B080BDC046485D00000F
S1131F70AF03000000200C4080B582B000AF786051
S1131F807B68002B06D1194AF8239B00101C191CEE
S1131F90FEF70AFF7B685B681A1CFF23134005D019
S1131FA0124B134A181C111CFEF7FEFE114B181C91
S1131FB00121FFF721F900F023F80020FFF752FD7B
S1131FC00020FFF717FD0C490C4A80231B068B5099
S1131FD0094A7B685B689360074B7A681278520100
S1131FE001210A435A60BD4602B080BD485D00002D
S1131FF0E60300000013020000200C400C10000057
S113200080B582B000AF0020FFF70EFD184B002210
S11320105A60174B3F22DA61154B3F225A62144B28
S11320203F22DA62124B3F225A63114B3F22DA639A
S11320300F4B0122DA640E4A0E4B0021D1500C4A98
S11320400D4B0E49D15000237B600BE0084A7B689E
S11320508821C9008C4663449B00002199507B6809
S113206001337B607B68052BF0DDBD4602B080BD8B
S113207000200C400C100000081000003F000080FD
S113208080B500AFFEF716F9BD4680BD80B500AF40
S1132090024A84230021D150BD4680BD00800C40FB
S11320A080B500AF024A84230249D150BD4680BDA9
S11320B000800C400E58000080B584B000AF021CB4
S11320C0FB1D1A70FB1D1B78002B0BD1314BDA6AF8
S11320D0314B1A601120FFF79DF9031C1A1C2F4B7A
S11320E01A7054E02B4A8423D35801221340FB6016
S11320F0FFF7D6FF0023BB60274B1B680122134068
S1132100BA681343BB60244B1B6810221340BA689F
S11321101343BB60204B1B6840221340BA6813432F
S1132120BB601D4B1B6804221340BA681343BB6099
S1132130194B1A6880235B001340BA681343BB60D1
S1132140154B1A6880239B03134002D08023DB00C5
S113215000E00023BA681343BB600E4BBA681A62EE
S11321600E4B1B78052B05D00C4B1B781120191C2A
S1132170FFF748FA084B1B680122134002D1054BB4
S113218002221A62FB68002B01D0FFF77FFFBD46D5
S113219004B080BD00800C403001002034010020D8
S11321A080B584B000AF021CFB1D1A70FB1D1B78A8
S11321B0002B02D00020FFF77FFF0E4B0D4A12695F
S11321C004210A431A61FFF7E1FB031CFB6003F0DF
S11321D08BFBFB68181CFFF7E7FBFB1D1B78002B30
S11321E003D00120FFF768FF01E0FFF749FFBD4678
S11321F004B080BD00ED00E080B582B000AF021CE9
S11322003960FB1D1A70FB1D1B78002B21D0FB1DB0
S11322101B78012B1AD0FB1D1B78022B14D0FB1D3D
S11322201B78032B0ED0FB1D1B78042B07D0FB1D42
S11322301B78052B01D13F230CE000230AE0F02397
S11322409B0107E0F02305E0114B03E0D323DB01FE
S113225000E0104B3A6813410122134005D10E4BA4
S11322600E4A181C111CFEF79FFD0D49FB1D1A7820
S11322703B6801209840031C181C131CDB009B18AE
S11322809B00CB1810335860BD4602B080BDC046D9
S11322901FEF0000070700005C5D0000DD03000085
S11322A00060004080B582B000AF021C3960FB1DA5
S11322B01A70FB1D1B78002B21D0FB1D1B78012BF2
S11322C01AD0FB1D1B78022B14D0FB1D1B78032B8B
S11322D00ED0FB1D1B78042B07D0FB1D1B78052B90
S11322E001D13F230CE000230AE0F0239B0107E027
S11322F0F02305E0114B03E0D323DB0100E0104B96
S11323003A6813410122134005D10E4B0E4A181CA2
S1132310111CFEF749FD0D49FB1D1A783B6801208D
S11323209840031C181C131CDB009B189B00CB1843
S113233010331860BD4602B080BDC0461FEF0000D8
S1132340070700005C5D00000C0400000060004012
S1132350B0B584B000AFB960111C7B600F23FB18CB
S1132360021C1A700E23FB180A1C1A700F23FB1888
S11323701B78002B26D00F23FB181B78012B1ED0B3
S11323800F23FB181B78022B17D00F23FB181B7885
S1132390032B10D00F23FB181B78042B08D00F231A
S11323A0FB181B78052B01D13F230CE000230AE026
S11323B0F0239B0107E0F02305E04B4B03E0D3231C
S11323C0DB0100E0494BBA6813410122134006D1F6
S11323D0474A1423FF33101C191CFEF7E5FC0E2397
S11323E0FB181B78002B13D07B68002B08D00F231D
S11323F0FB181A78BB68101C191CFFF753FF07E081
S11324000F23FB181A78BB68101C191CFFF7F4FE85
S1132410BB68072B22D8374C0F23FB181A78354892
S11324200F23FB1819780B1CDB005B189B00C318E7
S11324305B68B9688900081C0F218140C9430B40BF
S11324400E2179180978B868800081401943131C5B
S1132450DB009B189B00E318596029E0254C0F23EF
S1132460FB181A7823480F23FB1819780B1CDB0080
S11324705B189B00C31808331B68B9681E48844660
S113248061448900081C0F218140C9430B400E217F
S113249079180978B868184DAC46604480008140CA
S11324A01943131CDB009B189B00E31808331960C5
S11324B00E23FB181B78002B13D17B68002B08D04C
S11324C00F23FB181A78BB68101C191CFFF7EAFECF
S11324D007E00F23FB181A78BB68101C191CFFF7C0
S11324E08BFEBD4604B0B0BD1FEF0000070700001F
S11324F0C85D000000600040F8FFFF3F80B582B077
S113250000AF786039607B683A681A63BD4602B0F0
S113251080BDC04680B586B000AFF860B9607A600F
S1132520FB681B687B61BB6801229A40131CDB4378
S11325301A1C7B691A407B6801211940BB689940C9
S11325400B1C1A43FB681A60BD4606B080BDC0462A
S113255080B584B000AFF860B9607A60FB681B682E
S1132560BA68D2431A407B681A43FB681A60BD46B6
S113257004B080BD80B582B000AF786001E07B68B4
S1132580DB697B68DA6880235B001340F7D1BD46C2
S113259002B080BD90B589B000AFF860B9607A60D0
S11325A01A1CFB1C1A707B68002B06D15B4A16238D
S11325B0FF33101C191CFEF7F7FB7B68002B00D1BE
S11325C0A8E0FB1CFA1C127803210A401A70FB686D
S11325D01B68534A1A40FB681A60FA68FB1C1B7894
S11325E01B021C1CC0239B00101C191C221CFFF77F
S11325F0AFFFBB68002B11D1FB684A4A934206D156
S1132600494B181CFEF75CFE031CBB6006E0434A02
S11326103023FF33101C191CFEF7C6FB01235B4259
S1132620FB61FB681B680222134012D0FB1C1B7861
S1132630012B07D0022B08D0002B00D008E03B4B25
S1132640FB6105E03A4BFB6102E03A4BFB61C0469B
S113265011E0FB1C1B78012B07D0022B08D0002BA8
S113266000D008E0344BFB6105E0344BFB6102E031
S1132670334BFB61C046BA68FB699A4206D8274AC5
S1132680B2235B00101C191CFEF78EFBFB1C1B788D
S11326902C4AD35C7B617B697A6853433B613B6919
S11326A0002B07D11D4A7623FF33101C191CFEF79B
S11326B07BFB2FE07B689B00BA68D21A3B69D31876
S11326C0013B181C396902F07DFC031C013BBB6112
S11326D0BB69002B06DA114A7C23FF33101C191C3A
S11326E0FEF762FBBB69184A934206D90B4ABE2324
S11326F05B00101C191CFEF757FBFB681B680222C9
S1132700134004D0BB69002B01D10123BB61BA691A
S1132710FB681A61BD4609B090BDC046385E000032
S1132720FFFCFFFF00A0004000B204004016400080
S1132730C0D8A7008050740180841E0040548900D2
S1132740002D3101345E0000FF01000080B582B02D
S113275000AF78600A1CFB1C1A707B680A4A93421B
S113276006D00A4A9623FF33101C191CFEF71CFBE3
S11327707A68FB1C1B78101C00211A1CFFF7CAFE88
S1132780BD4602B080BDC04600A00040385E0000D7
S113279080B582B000AF786039607B68194A934293
S11327A006D0194AD5235B00101C191CFEF7FCFA4D
S11327B07B6800225A637B68144A181C111CFFF7BB
S11327C09DFE7A683B685B78002B01D0002300E013
S11327D00123101C01211A1CFFF79CFE3B68596859
S11327E03B689A683B681B7B7868FFF7D3FE3B68BD
S11327F01B787A68101C191CFFF7A8FFBD4602B0AD
S113280080BDC04600A00040385E0000FFFF01000C
S113281080B588B000AF78607B68C34A934206D025
S1132820C24A80239B00101C191CFEF7BDFA7B686A
S1132830BD4A934205D1BE4BBB61BB699B687B61BA
S113284001E0FC23FFE17B689B6A3B613A69C0239A
S1132850DB00134014D03A6980239B00134003D05B
S1132860BB69FD225A7007E03A698023DB001340FC
S113287002D0BB69FE225A70BB6909221A70CEE1EC
S1132880BB691B78082B00D9C1E19A00A94BD31866
S11328901B689F467B695B881A1C102313400AD06F
S11328A07B691B881B0A9BB21A1C06231340F02267
S11328B01343FB610FE07B691B881A1CFE23134042
S11328C0FB617B695B881A1C0223134003D0FB69FC
S11328D001221343FB61BB6901221A707B68FA6908
S11328E05A627B6801225A6099E13B698022134055
S11328F00ED07B68181C8021FFF700FEBB69FF2205
S11329005A70BB6908221A707B6802225A6032E04E
S11329103B69402213402ED07B68181C4021FFF7EE
S1132920EDFD7B695B881A1C102313400AD0BB6938
S113293002221A707B691B881A1CFF231A407B68C9
S11329405A6218E07B695B881A1C022313400ED07C
S1132950BB6907221A70BB691B797A69DB00D3183B
S11329601B89012B07D17B6808225A6057E1BB6998
S113297005221A7052E152E13B69802213400ED0C5
S11329807B68181C8021FFF7B9FDBB69FF225A70D0
S1132990BB6908221A707B6802225A6016E03B6900
S11329A04022134012D07B68181C4021FFF7A6FD7B
S11329B07B695B881A1C0223134003D0BB69032282
S11329C01A702BE1BB6905221A7027E127E17B69A4
S11329D05B881A1C102313400AD07B691B881B0ACE
S11329E09BB21A1C06231340F0221343FB6105E03B
S11329F07B691B881A1CFE231340FB617B695B887F
S1132A001A1C0423134003D0FB6901221343FB6106
S1132A10BB6904221A707B6801225A607B68FA69D8
S1132A205A62FCE03B69802213400ED07B68181C7C
S1132A308021FFF763FDBB69FF225A70BB6908223E
S1132A401A707B6802225A6016E03B6940221340E8
S1132A5012D07B68181C4021FFF750FD7B695B880E
S1132A601A1C0423134003D0BB6907221A7003E025
S1132A70BB6905221A70D1E0D1E0BB695A88BB69F1
S1132A801B797969DB00CB181B899A4224D3BB6973
S1132A9000225A80BB691B790133DAB2BB691A710F
S1132AA07B695B881A1C0423134003D0BB6903228F
S1132AB01A70B3E07B695B881A1C0123134003D1AD
S1132AC0BB691B79012B06D9BB6908221A707B6884
S1132AD002225A60A3E0A1E0BB691B797A69DB009A
S1132AE0D3185A68BB695B88591C88B2B969488095
S1132AF0D3181B781A1C7B685A62BB6906221A70A9
S1132B008DE03B698022134016D07B68181C80211D
S1132B10FFF7F4FCBB69FF225A70BB6908221A70E4
S1132B207B6802225A6014E000A00040385E000076
S1132B30380100204C5E00003B694022134008D05D
S1132B407B68181C4021FFF7D9FCBB6905221A7069
S1132B5064E064E03B692022134046D0BB691B79E2
S1132B607A69DB00D3181B89FB607B68DA690B2365
S1132B70FB181A70BB695B881A1EFB689A4210D254
S1132B80BB691B797A69DB00D3185A68BB695B8817
S1132B90591C88B2B9694880D3180B22BA18127824
S1132BA01A70BB695B881A1EFB689A420CD3FB68D7
S1132BB0012B02D17B6808225A60BB6908221A7073
S1132BC07B6802225A6010E07B6804225A60FB682A
S1132BD0012B0AD9BB695B881A1CFB68013B9A422A
S1132BE003D17B6808225A6019E018E03A6980230F
S1132BF05B0013400AD07A6880235B00101C191C08
S1132C00FFF77CFCBB6909221A7008E007E0BB6986
S1132C10FB225A70BB6909221A7000E013E6BB69F3
S1132C201B78092B0BD17B6800225A63BB695B7844
S1132C305BB2012B05D1BB6900225A7001E001236C
S1132C4001E0BB695B785BB2181CBD4608B080BD6F
S1132C5080B584B000AF786039607B68334A9342B2
S1132C6006D0334AD3239B00101C191CFEF79CF892
S1132C703B68002B05D12E4B2E4A181C111CFEF765
S1132C8093F87B68294A934207D12B4BFB607B68FE
S1132C909B680122134005D001E0FC2340E07B68DF
S1132CA020225A603B685B881A1C0223134003D01D
S1132CB03B681B89002B09D03B685B881A1C0423E2
S1132CC0134005D03B681B8A002B01D1FC2327E06D
S1132CD0FB6800221A70FB6801225A70FB6800220C
S1132CE05A80FB6800221A71FB683A689A607B6814
S1132CF0C0225A607B68181CFFF73CFC7B680F4AB3
S1132D00181C111CFFF7FAFB7B685B6BFC22D200DA
S1132D101A437B685A637B68181CFFF779FD031C10
S1132D205BB2181CBD4604B080BDC04600A0004084
S1132D30385E00004D03000038010020FFFF010051
S1132D4080B582B000AF786039607B681B6C01226B
S1132D50134000D005E0C0467B685B6C3A681340C2
S1132D60FAD1BD4602B080BD80B586B000AFF86030
S1132D70B9607A607B68002B06D1234A82235B000A
S1132D80101C191CFEF710F8BB68002B14D1FB684B
S1132D901E4A934208D11E4B7B617B69181CFEF7C7
S1132DA08FFA031CBB6007E0174A96235B00101CD4
S1132DB0191CFDF7F9FF24E0BB685B01181C796856
S1132DC002F000F9031C3B613B69203B3B613B691A
S1132DD0DB003B613B690F4A934206D90A4A3A2316
S1132DE0FF33101C191CFDF7DFFF3B69094A134030
S1132DF03B61FB68181C0421FFF7A2FFFB683A69DA
S1132E00DA60BD4606B080BD705E00000040084038
S1132E1090071A00F87F000080B582B000AF786098
S1132E200A1CFB1C1A70FB1C1B78002B08D0C04624
S1132E307B685B6C002BFBD17B6801221A6402E087
S1132E407B6800221A64BD4602B080BD80B582B0A2
S1132E5000AF786039607B681E4A934206D01E4AF0
S1132E60DF235B00101C191CFDF79EFF7B68181CF8
S1132E700221FFF765FF7B680A225A607B68181CF1
S1132E800121FFF7C9FF7B681B681C2293433A6842
S1132E90127B13433A68527B13433A68927B1A437A
S1132EA07B681A603B685A683B689B687968081CB1
S1132EB0111C1A1CFFF758FF3B681B781A1C7B680F
S1132EC05A607B68181C0021FFF7A6FFBD4602B0BC
S1132ED080BDC04600400840705E000080B582B0EE
S1132EE000AF78607B68194A934206D0184AF223EF
S1132EF05B00101C191CFDF757FF7B68181C01218F
S1132F00FFF78AFF7B68EA225A607B6800221A6016
S1132F107B680022DA607B6800221A617B680022E9
S1132F205A617B6800229A637B680A4A5A637B6809
S1132F300022DA637B6800225A657B68181C002132
S1132F40FFF76AFFBD4602B080BDC046004008409E
S1132F50705E0000F907000080B584B000AF7860AF
S1132F6039607B68012B04D90F4B181CAA21FDF78B
S1132F701BFF3B681B0E1B0604D00B4B181CAF2118
S1132F80FDF712FF7B68002B02D0012B03D008E071
S1132F90064BFB6002E0064BFB60C046FB683A68E8
S1132FA01A60BD4604B080BD885E00000800084079
S1132FB00C00084080B584B000AF78607B681B7853
S1132FC0002B02D00123FB6001E00023FB607B683F
S1132FD05B78002B03D0FB6802221343FB607B6801
S1132FE09B78002B03D0FB6804221343FB60034B44
S1132FF0FA681A60BD4604B080BDC04600000840AF
S113300080B582B000AF78600A1CFB1C1A70FB1CF0
S11330101B7810221A437B689A65BD4602B080BDB6
S113302080B586B000AFF860B9607A601A1CFB1CEA
S11330301A707B68002B06D14F4A91235B00101C49
S1133040191CFDF7B1FEBB68002B05D14B4B181CB6
S1133050FEF736F9031CBB60FB1C1B78202B17D032
S113306002DC002B05D045E0402B20D0602B32D071
S113307040E0BB681A097B689A4206D23E4AAA23FA
S11330805B00101C191CFDF78FFE10237B6139E0D7
S1133090BB68DA087B689A4206D2374A5A23FF3360
S11330A0101C191CFDF780FE08237B612AE0BB6815
S11330B0181C062101F086FF031C1A1E7B689A4225
S11330C006D22D4AAF235B00101C191CFDF76CFEC1
S11330D006237B6116E0BB689A087B689A4206D295
S11330E0254A6423FF33101C191CFDF75DFE0423DD
S11330F07B6107E0204A6A23FF33101C191CFDF78B
S113310053FE36E0BB685A017B6979684B435B0820
S1133110D3183B617B697A6853433869191C01F001
S113312051FF031C3B613B69203B3B613B69DB0076
S11331303B613B69124A934206D90F4A8023FF330D
S1133140101C191CFDF730FE3B690D4A13403B610E
S1133150FB681B68602293431A1CFB681A60FB68B7
S11331601A68FB1C1B781A43FB681A60FB683A69EF
S11331705A61BD4606B080BD9C5E000040810400DB
S1133180F8FF1F0080B582B000AF786039607B68BB
S1133190264A934209D07B68254A934205D0254BA1
S11331A0254A181C111CFDF7FFFD7B68181C00F054
S11331B045F83B689B7C002B06D07B681B6880220B
S11331C0D2051A437B681A603B68DB7C002B06D06F
S11331D03B681B7D7A68101C191CFFF711FF3B68C4
S11331E05B7B1A1C3B681B8A13433A68D2891A43D7
S11331F07B685A603B6859683B689A683B681B7BEC
S11332007868FFF70DFF3B685B7D002B06D07B6879
S11332101B68802252021A437B681A603B681B7841
S11332201A1C7B68DA60BD4602B080BD00C0004055
S113323000C400409C5E0000CF02000080B582B054
S113324000AF78607B68204A934209D07B681F4AAC
S1133250934205D01E4B1F4A181C111CFDF7A4FDF8
S11332607B681D4ADA607B6800221A607B681B4A0F
S11332705A607B6800229A607B6800225A617B68EE
S11332800022DA647B68164A9A647B6800225A65D5
S11332907B680D4A934203D07B680C4A934202D167
S11332A07B6800221A657B6800229A657B68064A5F
S11332B0934203D07B68054A934202D17B68002283
S11332C0DA65BD4602B080BD00C0004000C40040C5
S11332D09C5E0000FE030000AA0E00000510000022
S11332E0F91F000080B582B000AF7860C0467B68EB
S11332F01B6980221340FAD07B68DB69DBB2181C9F
S1133300BD4602B080BDC04680B582B000AF7860D3
S11333100A1CFB1C1A70C0467B681B6940221340C0
S1133320FAD0FB1C1A787B685A63BD4602B080BD94
S113333080B500AF104B114A1A600F4B02221A716C
S11333400D4B01225A710C4B02229A710A4B002236
S1133350DA71094B00221A75074B0022DA60064B1A
S1133360074A1A61044B04221A72034B181C00F01A
S11333706DFEBD4680BDC0461000002000A0004088
S1133380A086010090B589B000AF3960111CFB1D07
S1133390021C1A70BB1D0A1C1A70FB1D1B789AB202
S11333A00823FB181A800823FB1801225A800823DB
S11333B0FB183A685A60BB1D1B789AB20823FB18A5
S11333C01A810823FB180822BA18DA600823FB18AC
S11333D000221A820C4B1A681F23FC180823FB18BE
S11333E0101C191C00F0B6FE031C23701F23FB18CD
S11333F01B785BB2002B01D0002300E00123181CD2
S1133400BD4609B090BDC0461000002090B58BB0F9
S113341000AFB960111C7B600F23FB18021C1A70EB
S11334200E23FB180A1C1A700F23FB181B789AB280
S11334301023FB181A801023FB1804225A8010232F
S1133440FB18BA685A600E23FB181B789AB2102333
S1133450FB181A811023FB187A68DA603823FB18EA
S11334601B789AB21023FB181A820E4B1A68272372
S1133470FC181023FB18101C191C00F06BFE031C15
S113348023702723FB181B785BB2002B04D07B68C6
S113349000221A70002300E00123181CBD460BB063
S11334A090BDC0461000002080B500AF084B181C2A
S11334B00121FDF7A1FE01200B2104220123FEF7C7
S11334C047FF034B181C0021FDF796FEBD4680BD47
S11334D00082040080B500AF084B181C0121FDF7E1
S11334E08BFE01200B2104220023FEF731FF034B46
S11334F0181C0021FDF780FEBD4680BD008204003B
S113350098B500AF6423642B38D01D4B1B785A4206
S11335105341DBB26422511E8A41D2B21340DBB262
S1133520002B08D0FFF7C0FF154B1B780133DAB22C
S1133530134B1A7022E0124B1B789CB26423181CA4
S11335400A2101F03FFD031C9BB29C4208D1FFF706
S1133550C1FF0B4B1B780133DAB2094B1A700DE033
S1133560074B1B780A2B03D1054B00221A7005E088
S1133570034B1B780133DAB2014B1A70BD4698BD78
S11335804401002080B500AF6423002B06D0012045
S11335900B2104220123FEF7DBFE05E001200B21B1
S11335A004220023FEF7D4FE6423643B5A1E934195
S11335B0DBB26422511E8A41D2B21340DBB2002B2B
S11335C001D0012300E00023181CBD4680BDC04685
S11335D080B582B000AF021CFB1D1A70FB1D1B7866
S11335E0002B10D0114B181C0121FDF705FE0420FF
S11335F00D2104220123FEF7ABFE0C4B181C002105
S1133600FDF7FAFD0FE0094B181C0121FDF7F4FD4D
S113361004200D2104220023FEF79AFE034B181CFC
S11336200021FDF7E9FDBD4602B080BD0082040023
S113363080B582B000AF021CFB1D1A70FB1D1B7805
S1133640002B10D0114B181C0121FDF7D5FD0020D3
S1133650002104220123FEF77BFE0C4B181C0021E1
S1133660FDF7CAFD0FE0094B181C0121FDF7C4FD4D
S11336700020002104220023FEF76AFE034B181CDD
S11336800021FDF7B9FDBD4602B080BD00820400F3
S113369080B586B002AF5A4B181CFDF74DF9594B53
S11336A000221A70584A574B0093022011210B2311
S11336B000F0CAF8554B181CFDF73EF9514B0A228D
S11336C01A70514A4F4B0093022011210C2300F031
S11336D0BBF84F4B181CFDF72FF94A4B00221A7008
S11336E0494A484B009302201121112300F0ACF801
S11336F0484B181CFDF720F93A1C474B111C1A1CA7
S11337000D23081C111C1A1C02F0CEF8434A3B1C62
S1133710009302201121022300F096F8404B181C5C
S1133720FDF70AF9374B03221A70374A354B0093D9
S113373002201121092300F087F83A4B181CFDF7E9
S1133740FBF8304B04221A702F4A2E4B00930220B0
S11337501121082300F078F8334B181CFDF7ECF81E
S1133760284B58221A70274B02225A702F4A254B95
S1133770009302201121072300F066F82C4B181C3B
S1133780FDF7DAF82B4A1F4B0093022010210B237C
S113379000F05AF8284B181CFDF7CEF8254A194BAF
S11337A00093022010211A2300F04EF8234B181C1A
S11337B0FDF7C2F8134B00221A701E4A114B0093F6
S11337C002201021112300F03FF81D4B181CFDF7B7
S11337D0B3F8184A0B4B0093022010210C2300F07D
S11337E033F8184B181CFDF7A7F8124A054B009341
S11337F002201021042300F027F8BD4604B080BD48
S1133800B05E00004C0300202C000020C85E0000C5
S11338101C5F0000305F00001C60000034000020CA
S1133820545F0000705F0000A05F000030000020C3
S1133830C45F000028000020DC5F0000EC5F000093
S1133840FC5F00000C600000F0B591B000AF061CF6
S1133850081C3A62191C2723FB18321C1A702623F1
S1133860FB18021C1A702523FB180A1C1A706B46DD
S11338707B602723FA182623FB1812781B78534001
S1133880DAB23B6A1B785340D9B23B6A01331A78E7
S11338901F2320208446BC4463444A401A703B6A78
S11338A01B785A1D3B6A01331B781B02D618731E02
S11338B03B63331C3B6100237B6138697969031CDA
S11338C05B0F0A1CD200FA61FA691A43FA61031CFD
S11338D0DB00BB61331CBB600023FB60B868F96884
S11338E0031C5B0F0A1CD5001D43031CDC00331CA6
S11338F00733DB08DB006A46D31A9D466B46003368
S1133900FB62FB6A321C181C002101F0D6FFFB6A23
S11339102722BA1812781A70FB6A2622BA1812786B
S11339205A703B6A1A78FB6A9A703B6A5A78FB6A47
S1133930DA703B6A1B78002B0DD13B6A01331B788C
S1133940002B08D1FB6A1F2220218C46BC44624410
S113395012781A71CDE03B6A1B78012B21D13B6AA6
S113396001331B78002B1CD11F2320229446BC4416
S113397063441F222021791889182522BA1809784E
S113398012784A401A70FB6A2522BA1812781A7102
S1133990FB6A1F2220218C46BC44624412785A716F
S11339A0A7E03B6A1B781E2B4AD93B6A01331B787C
S11339B0002B45D10423BB6335E03B6A1B781A1CFA
S11339C03B6A01331B781B02D318DA1CBB6B9A4287
S11339D01CDBBB6B043BBA6DD31819781F23202260
S11339E09446BC4463441F2220208446BC44624461
S11339F012784A401A70BB6B043BBA6DD31819781D
S1133A00FA6ABB6BD3180A1C1A7009E0FA6ABB6B1A
S1133A10D3181F2220218C46BC44624412781A70A9
S1133A20BB6B0133BB633B6A1B781A1C3B6A0133D3
S1133A301B781B02D3181A1DBB6B9A42BDDA58E0DF
S1133A40FB6A2522BA1812781A711F232022944681
S1133A50BC4463441F222021791889182522BA18EE
S1133A60097812784A401A7005237B6335E03B6A73
S1133A701B781A1C3B6A01331B781B02D318DA1C0F
S1133A807B6B9A421CDB7B6B053BBA6DD3181978B0
S1133A901F2320229446BC4463441F2220208446D2
S1133AA0BC44624412784A401A707B6B053BBA6D81
S1133AB0D3181978FA6A7B6BD3180A1C1A7009E0B8
S1133AC0FA6A7B6BD3181F2220218C46BC446244C3
S1133AD012781A707B6B01337B633B6A1B781A1C68
S1133AE03B6A01331B781B02D3181A1D7B6B9A4265
S1133AF0BDDAFB6A321C181C111C01F007F8FB6AC2
S1133B00321C181C002101F0D8FE7B689D46BD467E
S1133B1011B0F0BD80B5C2B000AF78600823FF33A8
S1133B20FB18F5221A700823FB18181C0021F82230
S1133B3001F0C3FE3B4B842252009446BC446344D0
S1133B4002221A70374B842252009446BC446344C8
S1133B5004225A70334B842252009446BC4463447A
S1133B60F3229A702F4B842252009446BC4463443F
S1133B700022DA7004237A1CFF3213603CE07B1CC1
S1133B80FF331B68F62B22DC7B1CFF331B68043BD2
S1133B907A68D31819780823FF33FB180822FF32F8
S1133BA0BA1812784A401A707B1CFF331B68043B16
S1133BB07A68D31819781B4B84225200BA18D21889
S1133BC07B1CFF331B68D3180A1C1A700DE0154BBD
S1133BD084225200BA18D2187B1CFF331B68D318F6
S1133BE00822FF32BA1812781A707B1CFF331B6844
S1133BF001337A1CFF3213607B1CFF331B68F72BE5
S1133C00BDDD0823FB18181CF82100F07FFF0823F2
S1133C10FB18181C0021F82201F04FFEBD4642B0EB
S1133C2080BDC04600FFFFFF80B582B000AF786062
S1133C307B6801331B78862B0AD11E4B181CFCF7BA
S1133C407BFE1D4B00221A700020FFF7F1FC2EE0D2
S1133C507B6801331B78872B0AD1184B181CFCF79F
S1133C606BFE154B00221A700020FFF7E1FC1EE0EA
S1133C707B6801331B78882B0AD1114B181CFCF785
S1133C805BFE0D4B00221A700020FFF7D1FC0EE002
S1133C907B6801331B78C62B09D10A4B181CFCF72F
S1133CA04BFE054B01221A700120FFF7C1FCBD46F3
S1133CB002B080BD2C600000450100204C60000073
S1133CC064600000A460000080B500AF024B1B7864
S1133CD0181CBD4680BDC04645010020B0B582B069
S1133CE000AF021C3960FB1D1A70FB1D1B787F2B73
S1133CF027D82D4CFB1D1B785BB29B082A49FA1D63
S1133D00127852B29208C03292005258F91D0978C2
S1133D10081C03210140C900081CFF218140C9433C
S1133D2011403A689201FF200240F81D0078051CFA
S1133D3003202840C00082400A43C0339B001A512C
S1133D402EE01A4CFB1D1B781A1C0F231340083B52
S1133D509908164AFB1D1B78181C0F230340083BC7
S1133D609B0806339B00D3185B68FA1D1278101C5D
S1133D7003220240D200101CFF228240D2431A4088
S1133D803B689B01FF200340F81D0078051C0320BD
S1133D902840C00083401A438B1D9B00E3185A60DF
S1133DA0BD4602B0B0BDC04600E100E000ED00E059
S1133DB080B584B000AF78603960264B1B7801224F
S1133DC05340DBB2002B01D0234B3FE07B68002B38
S1133DD001D1224B3AE0FDF7F3FD031CBB60002345
S1133DE0FB602BE01E49FA68131C9B009B189B0088
S1133DF0CB1810331B7801225340DBB2002B1AD0AE
S1133E00FA687B681A601649FA68131C9B009B18B1
S1133E109B00CB18103301221A701149FA68131C45
S1133E209B009B189B0000225A50BB68181CFDF78E
S1133E30D5FD00230AE0FB680133FB60FB68052B1A
S1133E40D0DDBB68181CFDF7C9FD064B181CBD4628
S1133E5004B080BD46010020028000F0018000F023
S1133E6048010020048000F080B584B000AFFDF765
S1133E70A7FD031CBB601B4B1B78002B05D0BB6844
S1133E80181CFDF7ABFD184B28E0164B01221A70E5
S1133E90BB68181CFDF7A2FD0023FB600CE013496E
S1133EA0FA68131C9B009B189B00CB18103300224C
S1133EB01A70FB680133FB60FB68052BEFDD002003
S1133EC00421FFF70BFF3B1C00221A703B1C084A1D
S1133ED05A603B1C181CFEF74FF80023181CBD4603
S1133EE004B080BD46010020038000F0480100209A
S1133EF00005002080B582B000AF021C3960FB1DB4
S1133F001A70FB1D1B78002B21D0FB1D1B78012B85
S1133F101AD0FB1D1B78022B14D0FB1D1B78032B1E
S1133F200ED0FB1D1B78042B07D0FB1D1B78052B23
S1133F3001D13F230CE000230AE0F0239B0107E0BA
S1133F40F02305E0114B03E0D323DB0100E0104B29
S1133F503A6813410122134005D10E4B0E4A181C36
S1133F60111CFCF721FF0D49FB1D1A783B68012049
S1133F709840031C181C131CDB009B189B00CB18D7
S1133F8010335860BD4602B080BDC0461FEF00002C
S1133F9007070000C0600000DD030000006000406F
S1133FA080B582B000AF021C3960FB1D1A70FB1D86
S1133FB01B78002B21D0FB1D1B78012B1AD0FB1D75
S1133FC01B78022B14D0FB1D1B78032B0ED0FB1D7A
S1133FD01B78042B07D0FB1D1B78052B01D13F2335
S1133FE00CE000230AE0F0239B0107E0F02305E046
S1133FF0114B03E0D323DB0100E0104B3A6813417B
S11340000122134005D10E4B0E4A181C111CFCF75B
S1134010CBFE0D49FB1D1A783B6801209840031C18
S1134020181C131CDB009B189B00CB181033186062
S1134030BD4602B080BDC0461FEF00000707000068
S1134040C06000000C0400000060004080B588B02F
S113405000AF78607B68002B04D13A4B181C3E21DA
S1134060FCF7A2FE384B181C0121FDF7C5F87B684C
S11340701B68364A93421DD1354BBB61BB69181C82
S11340800121FDF7B9F87B681A797B685B79101C0C
S1134090191C0A220123FEF75BF97B689A797B6875
S11340A0DB79101C191C0A220123FEF751F90023A5
S11340B0FB6118E0234B181C5421FCF775FE3DE00E
S11340C07B681A797B685B79101C191CFFF768FF01
S11340D07B681A797B685B79101C191CFFF70AFF4F
S11340E0FB690133FB61FB69082BE9DD7B681B6815
S11340F07A68127A1202111C03220A439A63082373
S1134100FB1801221A700823FB1801225A707B68DD
S11341101A690823FB189A607B68DA680823FB187D
S11341205A607B681A7D0823FB181A737B681A6827
S11341300823FB18101C191CFEF72AFBBD4608B007
S113414080BDC0462C6100004081040000A00040F6
S113415000B2040090B585B000AF78603960144BAC
S1134160BB600F23FC187A683B68101C191CFEF70F
S11341706FFD031C237007E00F23FC187B68181CD9
S1134180FEF746FB031C23700F23FB181B785BB25E
S1134190012B04D1BB685A1EBA60002BECD10F234B
S11341A0FB181B785BB2181CBD4605B090BDC04619
S11341B0E093040080B582B000AF021CFB1D1A70AE
S11341C0FB1D1B787F2B09D8064BFA1D1278111C96
S11341D01F220A40012191400A1C1A60BD4602B008
S11341E080BDC04600E100E080B582B000AF021C93
S11341F0FB1D1A70FB1D1B787F2B0AD80649FB1D7B
S11342001B781A1C1F23134001229A40C0235B0011
S1134210CA50BD4602B080BD00E100E080B500AFE9
S1134220034BDB6C1B0EDBB2181CBD4680BDC046C5
S1134230B081E00F90B583B000AF0C4B01221A643B
S1134240FC1DFFF7EBFF031C2370FB1D1B78812B68
S113425008D8074B074A1A60074B074A12680749F0
S11342600A401A60BD4603B090BDC04600000C4031
S113427018600C4005000004E4800C40FFFFFFFEC2
S113428080B500AF044B044A126904218A431A61C1
S113429030BFBD4680BDC04600ED00E080B582B0B1
S11342A000AF786039607B683A685A63BD4602B0F3
S11342B080BDC04680B582B000AF786039607B684D
S11342C09B6B3A68D2431A407B689A63BD4602B03E
S11342D080BDC04680B582B000AF786039607B682D
S11342E09A6B3B681A437B689A63BD4602B080BDF3
S11342F080B582B000AF78607B68DB6A181CBD466D
S113430002B080BD80B582B000AF7860024B7A689D
S11343109A61BD4602B080BD0000084080B582B0FD
S113432000AF7860044B044AD1697A680A43DA61C1
S1134330BD4602B080BDC0460000084080B500AF55
S1134340034B1B685A1C024B1A60BD4680BDC04615
S11343507C08002080B582B000AF0F4B0020191CF0
S1134360FEF7FAFD0220FFF7D9FF0C20FFF73CFF10
S11343700C20FFF71FFF3A1D084B111C1A1C0323C6
S1134380081C111C1A1C01F08FFA3B1D181CFEF7A7
S113439011FEBD4602B080BDFF7F00003C610000FD
S11343A080B500AF364B00221A70364B1B78002BB9
S11343B052D0354B1B78002B16D087239B0000204E
S11343C0191CFEF7C9FDFFF7DDF8031C1A1C2F4B5F
S11343D01A702E4B1B78002B03D000200F21FEF700
S11343E0BBFD294B00221A70284B1B78002B01D0EF
S11343F0FFF786F8254B1B78002B1BD0244B1B683A
S1134400202B11D9234B1B78002B03D0214B0022E6
S11344101A7002E01F4B01221A701D4B00221A6011
S1134420174B02221A7026E0194B1B685A1C184BB2
S11344301A6020E0174B1B78002B03D0154B002289
S11344401A7002E0134B01221A70114B00221A60F9
S11344500B4B02221A700EE00B4B1B7801225340C7
S1134460DBB2002B07D00C4B0020191CFEF774FDA7
S1134470054B01221A700220FFF744FFBD4680BDA0
S1134480FD010020C501002036000020C4010020E9
S1134490C001002040000020FF7F000090B585B0DF
S11344A002AFFFF7C7FE0020FBF7DCFE0120072167
S11344B000220023FDF74CFF0120082100220023E5
S11344C0FDF746FF914B914A1268802189010A4306
S11344D01A60002001210122FDF7E6F98C4B181C1B
S11344E00121FCF789FE8B4B181C0221FDF78AF889
S11344F0894B181C0221FDF785F8854B181C0121F6
S1134500FCF77AFE854B181C0121FCF775FE844BE1
S1134510181C0121FCF770FE824B181C0121FCF7CA
S11345206BFE814B181C0121FCF766FEFFF712FF9E
S113453000F0F2FC00F044FA7C4B181C0421012228
S11345400023FCF721F87A4B181CFCF7F5F900F06E
S1134550B9FAFEF7EDFEFFF79BF80120FFF738F8F4
S11345600020FFF765F800F0F9F8724B1B78012B77
S11345700DD002DC002B06D0C6E0022B1BD0032B8F
S113458000D1BAE0C0E00120FDF70AFEBCE06A4BAE
S1134590181CFCF7B1F9694B181CFCF7ADF9664B14
S11345A0181CFFF7B7FA654B181CFFF7B3FA614BF9
S11345B000221A70A8E0624B00221A70614B1B782B
S11345C0EF2B00D98FE0604B1B78002B48D05F4B5A
S11345D01B78002B04D000F0D9F85C4B00221A7031
S11345E00823FA183C1D03230093D020111C012238
S11345F0231CFEF70BFF031C1A1C514B1A70504B63
S11346001B78DBB2002B13D04E4B1B781A1C3B1DBE
S11346105978494B99544B4B1B7801333A1D117807
S1134620454AD154474B1B780233DAB2454B1A70D2
S1134630474B01221A7000F0FBF8464B1A78082306
S1134640FB181A700823FB18D020191C0122FEF74E
S113465099FE031C1A1C3A4B1A70394B1B783EE026
S11346600823FA183C1D03230093D020111C0122B7
S1134670231CFEF7CBFE031C1A1C314B1A70304B63
S11346801B78DBB2002B13D0334B1B781A1C3B1D59
S113469059782A4B9954304B1B7801333A1D1178C1
S11346A0264AD1542C4B1B780233DAB22A4B1A70A7
S11346B0274B00221A7000F0BBF8264B1A78082307
S11346C0FB181A700823FB18D020191C0122FEF7CE
S11346D059FE031C1A1C1A4B1A70194B1B78154BE4
S11346E000221A7010E01C4B01221A70154B012293
S11346F01A70104B03221A7006E0144B01221A7030
S11347000C4B01221A70C0462FE7C04600800C40B3
S1134710002302000300200002001E000013020018
S113472090071A00800612000082040000C40040B2
S113473040610000FD0100205406002048070020CD
S1134740F80100203D000020400000203700002038
S1134750FB010020FC0100203E00002080B582B057
S113476000AF3B1D04221A703B1D1F225A703B1DD3
S11347709220191C0222FEF705FE031C1A1C024B90
S11347801A70BD4602B080BDF801002090B587B014
S113479002AF0823FB1800221A700823FA183C1DE4
S11347A0022300939220111C0122231CFEF72EFEEB
S11347B0031C1A1C1B4B1A703B1D19781A4BF1224F
S11347C099543B1D5978184BF22299543B1D5B7840
S11347D05B09DBB21A1C3B1D1B78DB00D318181CC9
S11347E000F05AFF031C0C1C181C211C0022FF2380
S11347F09B0500F0B7FC031C0C1C181C211C00F0CA
S113480087FF031CFB60094B181CFCF795F8F8683C
S113481000F088FC031C181CFCF784F9BD4605B0A5
S113482090BDC046F80100205406002050610000ED
S113483080B500AF5A4B1B78002B0FD0594B1B7817
S1134840802252421343DAB2564B1A70554B1B78EE
S113485010229343DAB2534B1A7006E0514B1B7883
S113486010221343DAB24F4B1A704F4B1B78012BB3
S11348700ED14C4B1B7801229343DAB2494B1A7088
S1134880484B1B7802229343DAB2464B1A7020E05D
S1134890454B1B78022B0ED1424B1B78012213434C
S11348A0DAB2404B1A703F4B1B7802229343DAB2C0
S11348B03C4B1A700DE03B4B1B7802221343DAB2D7
S11348C0384B1A70374B1B7801229343DAB2354BBD
S11348D01A70364B1B78002B0ED0324B1B780422F7
S11348E09343DAB22F4B1A702E4B1B780822934352
S11348F0DAB22C4B1A7020E02D4B1B78002B0ED013
S1134900284B1B7804221343DAB2264B1A70254B2A
S11349101B7808229343DAB2224B1A700DE0214B24
S11349201B7804229343DAB21E4B1A701D4B1B787A
S113493008221343DAB21B4B1A701E4B1B78002B50
S11349400ED1184B1B7820229343DAB2154B1A7000
S1134950144B1B7840229343DAB2124B1A700DE0C9
S1134960104B1B7820221343DAB20E4B1A700D4BF6
S11349701B7840229343DAB20A4B1A700D4B1B7812
S1134980002B03D1074B1A780B4B1A70094B1B7879
S1134990012B03D1034B1A78084B1A70BD4680BD16
S11349A0F9010020FC0100203F0000203C00002011
S11349B0FA010020FB0100205406002048070020D3
S11349C080B500AF374B181C0121FCF715FCFFF72D
S11349D04BFA354B181C0021FFF7EAF9334B181C2E
S11349E00021FFF7E5F9324B0022DA70304B002248
S11349F01A702F4B00221A712D4B00229A702C4BE7
S1134A0003225A702B4B00229A602A4B01225A70BF
S1134A10284B00221A70274B802252035A60224BE3
S1134A201A68244B101C191CFDF7A2F91E4B1A68B6
S1134A301F4B101C01211A1CFDF700FA1A4B1A68AF
S1134A401B4B101C00211A1CFDF7F8F91A4B00220D
S1134A50DA70194B03221A70174B00221A71164B85
S1134A6000229A70144B00225A70144B01225A707F
S1134A70124B00221A70114B114A5A600F4B00223C
S1134A809A600A4B1A680D4B101C191CFDF770F93B
S1134A90064B1A68084B101C01211A1CFDF7CEF9AD
S1134AA0BD4680BD00130200C8010020CC010020D7
S1134AB0D0010020E0010020D8010020EC010020FA
S1134AC00100100080B500AF0F4B01221A640E4B99
S1134AD00D4A526801210A435A600B4B0A4A126874
S1134AE0802149010A431A60074B074A526D01218C
S1134AF00A435A65044B00221A64C046024B5B6C9D
S1134B00002BFBD1BD4680BD0040084090B585B068
S1134B1002AF786039603B68002B00D12EE0194B5E
S1134B2001221A64174B174A526D02210A435A652F
S1134B30144B144A526804210A435A60114B002250
S1134B401A64C0460F4B5B6C002BFBD10E4B1968EB
S1134B503B68013B0D4C7A6800920193081C0121CB
S1134B600022231CFDF7BEF8FFF78AFBC046064B64
S1134B701B68181CFDF7DEF9031EF8D1BD4603B00F
S1134B8090BDC04600400840CC01002028400840A9
S1134B9090B58BB002AFD94B181C0021402200F015
S1134BA08CFED74B181CFFF7A3FB031C7B607A68B1
S1134BB080239B00134000D171E1D24B1A68D24B81
S1134BC01B68191CD14CD24B00930191101C01217C
S1134BD00022231CFDF786F81F23FB1800221A70FD
S1134BE01E23FB1801221A700023BB6100237B6182
S1134BF00023FB604FE1C54AFB68D3181B78023BD6
S1134C005A425341DBB2191C1F23FB181B780122A3
S1134C105340DBB20B401CD00023BB611323FB18B1
S1134C2000221A70B94AFB68D3181978B34ABB69D1
S1134C30D3180A1C1A70FB687B611F23FB1801221E
S1134C401A701E23FB1800221A70BB690133BB6162
S1134C501EE1AE4AFB68D3181B785A1E9341DBB29F
S1134C60AA49FA688A181278023A511E8A41D2B2C5
S1134C701340DBB2191C1F23FB181B78012253407D
S1134C80DBB20B401E22BA18127813401BD000234B
S1134C90BB611323FB1800221A70984ABB69D3180E
S1134CA002221A70FB687B611F23FB1801221A7011
S1134CB01E23FB1800221A70BB690133BB61FB6819
S1134CC0013BFB60E4E01F23FB181B78002B00D1A1
S1134CD0DEE0BB69032B0CDC8C4AFB68D318197823
S1134CE0864ABB69D3180A1C1A70BB690133BB61BD
S1134CF0CEE0824B9B781A1C804BDB781B02D318C6
S1134D00002B42D17D4B1A787C4B5B785340DAB24E
S1134D107A4B9B785340DAB2784BDB785340DAB263
S1134D20FB1C1A70FB1C1B785BB27849FA688A1862
S1134D30127893421ED1FB1C1978704ABB69D318B0
S1134D400A1C1A706D4B181CFEF76EFF1F23FB180C
S1134D5000221A707A696D4BD218BB69101C0021AD
S1134D601A1C00F0AAFD654B181C0021402200F01B
S1134D70A4FD8DE0BB690133BB617B690133FB603A
S1134D801F23FB1800221A7082E05C4B9B781A1CCC
S1134D905A4BDB781B02D318002B00DC78E0574B0E
S1134DA09B781A1C554BDB781B02D3181A1DBB6960
S1134DB09A426DDB514B9B781A1C504BDB781B02DB
S1134DC0D3181A1DBB699A420CDD504AFB68D318EC
S1134DD019784A4ABB69D3180A1C1A70BB69013393
S1134DE0BB6155E0454B9B781A1C444BDB781B0296
S1134DF0D3181A1DBB699A424AD11323FB18002207
S1134E001A700023BB600DE03C4ABB68D3181978C4
S1134E101323FB181322BA1812784A401A70BB687D
S1134E200133BB60BA68BB699A42EDDB374AFB6861
S1134E30D3181B781322BA1812789A4221D12F4A18
S1134E40BB69D3181322BA1812781A70BB690133DC
S1134E50BB612A4B181CFEF7E7FE1F23FB18002238
S1134E601A707A69294BD218BB69101C00211A1CCC
S1134E7000F023FD214B181C0021402200F01DFDF1
S1134E8006E07B690133FB601F23FB1800221A70C4
S1134E90FB680133FB60FB683F2B00D8ABE61B4B80
S1134EA0181C0021402200F008FD7A688023DB00F2
S1134EB0134012D0134B1B68181CFDF73BF8031E5C
S1134EC00BD0104B1B68181C0021FDF709F80C4B84
S1134ED00B4A526810210A435A60FEF7F5FE031C80
S1134EE01A1C0C4B1A70064A01235B42101C191C35
S1134EF0FFF7D4F9BD4609B090BDC04610060020A6
S1134F0000400840C8010020380000203C08002070
S1134F101C400840C501002080B500AF03200421D7
S1134F2004220123FDF714FA0320052101220023A2
S1134F30FDF70EFA204B181CFDF7D0FF1E4A1F4B3D
S1134F40101C191CFDF782FF1B4B01221A641A4B1B
S1134F5000225A65184B1A4A1A60174B164A5268AF
S1134F6010210A435A60144B0D225A61124B02223B
S1134F701A61114B00221A64C0460F4B5B6C002B64
S1134F80FBD10D4A01235B42101C191CFFF792F957
S1134F90094AC023DB00101C191CFFF79BF9064AC1
S1134FA001235B42101C191CFFF778F90A20FFF754
S1134FB001F9BD4680BDC0460040084044000020C1
S1134FC001310000002243088B4274D303098B4251
S1134FD05FD3030A8B4244D3030B8B4228D3030CC5
S1134FE08B420DD3FF22090212BA030C8B4202D367
S1134FF01212090265D0030B8B4219D300E0090A8F
S1135000C30B8B4201D3CB03C01A5241830B8B4297
S113501001D38B03C01A5241430B8B4201D34B0380
S1135020C01A5241030B8B4201D30B03C01A5241E5
S1135030C30A8B4201D3CB02C01A5241830A8B426A
S113504001D38B02C01A5241430A8B4201D34B0253
S1135050C01A5241030A8B4201D30B02C01A5241B7
S1135060CDD2C3098B4201D3CB01C01A524183096B
S11350708B4201D38B01C01A524143098B4201D3A5
S11350804B01C01A524103098B4201D30B01C01AD0
S11350905241C3088B4201D3CB00C01A524183084A
S11350A08B4201D38B00C01A524143088B4201D377
S11350B04B00C01A5241411A00D2014652411046D7
S11350C07047FFE701B5002000F00CF802BDC046B0
S11350D00029F7D003B5FFF775FF0EBC4243891AC8
S11350E01847C0467047C0461C2101231B04984240
S11350F001D3000C10391B0A984201D3000A083965
S11351001B09984201D30009043902A2105C40181B
S11351107047C046040302020101010100000000BF
S1135120000000004202510A4200C30F120E002088
S11351307E2A0DDD9D2A0CDC802000040143952A83
S11351400ADC9620821AD1400A1C58424240D018E8
S11351507047034A9818FBE7963A91400A1CF4E713
S1135160FFFFFF7FF0B55F4656464D464446F0B418
S1135170051C061C080387B099464F00030BCC0F8F
S113518092469B467F0D019467D06C4B9F4236D06C
S113519080205B4640031843C0006B0F1843684BE4
S11351A083469C4600239846EE00674400934B4692
S11351B049461D03C90F5B0052462D0B5B0D894602
S11351C000D16EE05D498B4264D080205C4940038D
S11351D08C4600210543ED00500F0543D200634483
S11351E04846FF187B1C9A46009B604002900B4384
S11351F00F2B00D9ACE053489B00C3589F465B4635
S11352001D4300D082E00823009300239B46023311
S113521000269846CBE7029B01934346022B59D1C3
S1135220012400250026019B1C40444B00212D0332
S11352300A0D12052D0B1543434A1B0515401D434A
S11352406D00E4076D082543301C291C07B03CBCE5
S113525090469946A246AB46F0BD2B434ED05B46E2
S1135260002B00D185E15846FFF73EFF021C28239E
S1135270291C9B1A161C5846D940083EB0400B1CEA
S1135280B54003439B462E1C0023304F0093BF1AA6
S113529098468CE7514629432ED10025002202214D
S11352A09EE75146294323D0002D00D154E1281C08
S11352B0FFF71AFF031C28215046C91A1A1CC840BC
S11352C05146083A914095400A1C05431F48002165
S11352D0C31A85E7032B00D1C2E1012B00D06DE195
S11352E04446019B00251C40E4B2002300269DE7B0
S11352F000250022012173E7032171E704230093B1
S113530000239B4601330026984650E70C23009364
S1135310093B98464BE7802500242D030026074BC4
S113532084E74B46AB46161C0193884675E7029BFF
S1135330AB46161C019388466FE7C046FF07000082
S113534001FCFFFF64610000FFFF0F800DFCFFFF05
S1135350330C3604360C9C46331C140C1204120C09
S113536053439846634653439946634663430193C4
S1135370331C41466343090C4B445B18994505D9DA
S1135380802040028146019949440191190C0391FE
S113539041460904090C1B045B1804932B0C984622
S11353A0331C2D04290C4B43604600934346654649
S11353B058435E43009B4D431B0C9946AE194E4423
S11353C08446B54203D980235B029946CC44350C0C
S11353D02B1C0398634484460593009B36041B04EA
S11353E01B0CF3189C446046039058460504060CB5
S11353F0280C84465043351C81466046654344432B
S11354004846000C8346724314195C44A24203D9F3
S11354108022520293465D44220CAD184A4612047F
S1135420120C24044046A41862464A43714346437E
S113543060460096464670438046100C8446884475
S1135440E044414505D9802149028C4600996144D4
S11354500091019803998446614499429B415B42BF
S113546099460598434684461204120C1B049B1863
S113547063449C46AB4683429B4140460A19CC4454
S1135480A2428941E344CC45B6415C46000C8046C7
S1135490494276425B426418334398448C428941C2
S11354A0AB459B4149425B4219430D1C009B45445B
S11354B0EE187602E50D2E43B346049B56021E43B6
S11354C0731E9E415B46D20D324366021643DB01D6
S11354D00AD50123334076081E435B46DB071E438F
S11354E05B465B089B465746634BFB18002B5ADD13
S11354F0720709D00F223240042A05D0321DB2426D
S1135500B6417642B344161C5A46D20106D55A46D1
S11355105A4B1A4080239346DB00FB18584A9342A7
S113552034DD0124029B00251C400026554B7DE6FA
S113553080205B460003034208D0054206D10543A0
S11355402D032D0B4C46161C4E4B6FE65D46054352
S11355502D032D0B4B4B69E65046FFF7C5FD031C8D
S11355602033272B00DCA6E6554608388540002268
S1135570ACE6281CFFF7B8FD021C2032272A00DC09
S113558075E6083885400026AB467DE65A46F6089F
S1135590520716435A4601245502029A5B052D0B05
S11355A05B0D144042E6384DED1B382D0ADD012415
S11355B0029B00251C400026002337E6019B57462A
S11355C0029391E71F2D25DC304B321C9C46674427
S11355D0BE405B46BB40371CEA407E1EB7411343C6
S11355E03B431E1C5B46EB401D1C730709D00F2375
S11355F03340042B05D0331DB342B6417642AD1976
S11356001E1C2B0220D50124029B00251C400026D1
S113561001230BE65A461E4BDB1BDA40131C202DDC
S11356201CD01C4A94465A466744BA40171C3E4351
S1135630721E96411E4307230025334007D00F23D3
S113564000253340042BD6D16B076D022D0B0124AA
S1135650F6081E43029B1C400023E7E50027E6E70B
S113566080255B4601242D031D43019B2D0323400C
S11356701C1C2D0B034BD9E5FF030000FFFFFFFEAD
S1135680FE070000FF07000002FCFFFF1E040000ED
S1135690E2FBFFFF3E04000038B5041E16D0C50F20
S11356A000D04442201CFFF71FFD174B1B1A0A2889
S11356B021DC021C211C153291400A1C0B21081A02
S11356C0C4405B052403240B5B0D03E00025002389
S11356D0002400220021101C24030A0D1205240BAF
S11356E014430A4A1B0514401C436400ED07640874
S11356F02C43211C38BD0B3884405B052403240B48
S11357005B0D0022E6E7C0461E040000FFFF0F8089
S113571070B50B034D00440F6D0D5B0A23436C1CE5
S11357206405C90FC200640D012C2ADD3B4C2C1901
S1135730FE2C1ADC002C35DD8001451EA841DB005F
S11357400343520F13435A0704D00F221A40042A6A
S113575000D004338022D2041A4027D00134FF2C15
S113576003D09B015B0AE4B201E0FF2400235B0247
S1135770E4055B0A23435B00C9075B080B43181C61
S113578070BD002D06D113430ED100245B025B0AC9
S1135790E4B2ECE71A43E8D08020DB008004034342
S11357A0FF24D0E717340CDA05230024DB08FF2C90
S11357B0ECD1002B2DD08022D20313435B025B0A71
S11357C0D5E78024164824042343401B1F280DDCFE
S11357D0144CA4466544AB401C1C131CAB405D1E1A
S11357E0AB41C240234313430024ACE71E1C0E4CC0
S11357F0641BE640341C20280DD00C4884466544C4
S1135800AB401D1C2A43531E9A41131C23430024FE
S113581099E70023ABE70025F4E7C04680FCFFFFCF
S11358209E03000082FCFFFF7E030000A2FCFFFF3A
S1135830084B10B5041C002B02D0002100E000BF6F
S1135840054B1868836A002B00D09847201C00F091
S11358503DF8C04600000000A86100000E4B70B582
S113586000251E1C0D4CE41AA410A54204D0AB0064
S1135870F35898470135F8E700F02AF8084B00255B
S11358801E1C084CE41AA410A54204D0AB00F35823
S113589098470135F8E770BDC4000020C40000201B
S11358A0C4000020C8000020002310B5934203D098
S11358B0CC5CC4540133F9E710BD031C8218934235
S11358C002D019700133FAE770470000FEE7C046C2
S11358D0F8B5C046F8BC08BC9E467047F8B5C0464B
S11358E0F8BC08BC9E46704701B40248844601BC1B
S11358F0604700BFB5000020050000000000000064
S113590000C20100000500000010000000000000BB
S1135910633A5C73696C69636F6E6C6162735C7328
S1135920696D706C696369747973747564696F5CAB
S113593076345F325F335F345C646576656C6F70B8
S113594065725C73646B735C6765636B6F5F7364D0
S11359506B5F73756974655C76322E355C706C614F
S113596074666F726D5C656D6C69625C696E635CB4
S1135970656D5F6770696F2E680000001B5B306D9A
S113598000000000070D0C2323232055415254200E
S1135990696E697469616C697A65642028696E74DA
S11359A0657272757074206D6F64652920232323DA
S11359B0000000005468697320697320616E2069D7
S11359C06E666F206D6573736167652E000000005D
S11359D0546869732069732061207761726E696EFF
S11359E067206D6573736167652E00005468697381
S11359F0206973206120637269746963616C206536
S1135A0072726F72206D6573736167652E0000009A
S1135A102323232020537461727420657865637591
S1135A2074696E672070726F6772616D6D65642052
S1135A30636F646520202323230A0000070D0C23D1
S1135A402323205541525420696E697469616C693D
S1135A507A656420286E6F20696E74657272757041
S1135A607473292023232300232323205374617276
S1135A707420657865637574696E672070726F67EA
S1135A8072616D6D656420636F6465202023232338
S1135A900A000000050000000000000000C2010030
S1135AA00005000000100000000000001B5B333103
S1135AB06D0000001B5B33326D0000001B5B333450
S1135AC06D0000001B5B33366D0000001B5B33353B
S1135AD06D0000001B5B33336D000000494E464FE0
S1135AE03A2000005741524E3A2000004352495494
S1135AF03A2000002D000000307800004E6F207224
S1135B0065636569766564206461746120617661AA
S1135B10696C61626C6521002A060000260700009A
S1135B2044060000520600006C06000086060000D1
S1135B3086060000BE06000026070000D806000006
S1135B40D8060000F20600000C0700004807000019
S1135B505A0700006E07000080070000920700004B
S1135B60A4070000B60700009E090000B809000061
S1135B70D2090000EC090000060A0000200A000017
S1135B808C090000633A5C73696C69636F6E6C61C5
S1135B9062735C73696D706C69636974797374752D
S1135BA064696F5C76345F325F335F345C6465765E
S1135BB0656C6F7065725C73646B735C6765636B53
S1135BC06F5F73646B5F73756974655C76322E35D1
S1135BD05C706C6174666F726D5C656D6C69625C3F
S1135BE0696E635C656D5F636D752E68000000000F
S1135BF0433A2F53696C69636F6E4C6162732F5320
S1135C00696D706C696369747953747564696F2F15
S1135C1076345F325F335F342F646576656C6F7002
S1135C2065722F73646B732F6765636B6F5F736447
S1135C306B5F73756974652F76322E352F706C61C6
S1135C4074666F726D2F656D6C69622F7372632F4A
S1135C50656D5F636D752E630000000058120000CF
S1135C60261200002C12000020120000581200001E
S1135C7058120000321200003C12000046120000CC
S1135C805812000052120000CA150000401400000F
S1135C90A8140000F414000040150000CA15000008
S1135CA0721500007C1500005C1800003E16000010
S1135CB0E8160000E8160000821700005C180000D7
S1135CC05C180000DC170000A4160000A4160000F5
S1135CD0501600005E1600006C1600007A160000D4
S1135CE0A4160000A4160000A4160000A4160000C8
